{
  "_format": "hh-sol-artifact-1",
  "contractName": "Lending",
  "sourceName": "contracts/Lending.sol",
  "abi": [
    {
      "inputs": [
        {
          "internalType": "address",
          "name": "_stablecoin",
          "type": "address"
        }
      ],
      "stateMutability": "nonpayable",
      "type": "constructor"
    },
    {
      "inputs": [],
      "name": "ReentrancyGuardReentrantCall",
      "type": "error"
    },
    {
      "anonymous": false,
      "inputs": [
        {
          "indexed": true,
          "internalType": "address",
          "name": "user",
          "type": "address"
        },
        {
          "indexed": false,
          "internalType": "uint256",
          "name": "amount",
          "type": "uint256"
        }
      ],
      "name": "Borrowed",
      "type": "event"
    },
    {
      "anonymous": false,
      "inputs": [
        {
          "indexed": true,
          "internalType": "address",
          "name": "user",
          "type": "address"
        },
        {
          "indexed": false,
          "internalType": "uint256",
          "name": "amount",
          "type": "uint256"
        }
      ],
      "name": "Deposited",
      "type": "event"
    },
    {
      "anonymous": false,
      "inputs": [
        {
          "indexed": true,
          "internalType": "address",
          "name": "user",
          "type": "address"
        },
        {
          "indexed": true,
          "internalType": "address",
          "name": "liquidator",
          "type": "address"
        },
        {
          "indexed": false,
          "internalType": "uint256",
          "name": "debtRepaid",
          "type": "uint256"
        },
        {
          "indexed": false,
          "internalType": "uint256",
          "name": "collateralSeized",
          "type": "uint256"
        }
      ],
      "name": "Liquidated",
      "type": "event"
    },
    {
      "anonymous": false,
      "inputs": [
        {
          "indexed": true,
          "internalType": "address",
          "name": "user",
          "type": "address"
        },
        {
          "indexed": false,
          "internalType": "uint256",
          "name": "amount",
          "type": "uint256"
        }
      ],
      "name": "Repaid",
      "type": "event"
    },
    {
      "anonymous": false,
      "inputs": [
        {
          "indexed": true,
          "internalType": "address",
          "name": "user",
          "type": "address"
        },
        {
          "indexed": false,
          "internalType": "uint256",
          "name": "amount",
          "type": "uint256"
        }
      ],
      "name": "Withdrawn",
      "type": "event"
    },
    {
      "inputs": [],
      "name": "ETH_PRICE",
      "outputs": [
        {
          "internalType": "uint256",
          "name": "",
          "type": "uint256"
        }
      ],
      "stateMutability": "view",
      "type": "function"
    },
    {
      "inputs": [],
      "name": "MIN_COLLATERAL_RATIO",
      "outputs": [
        {
          "internalType": "uint256",
          "name": "",
          "type": "uint256"
        }
      ],
      "stateMutability": "view",
      "type": "function"
    },
    {
      "inputs": [],
      "name": "RATIO_DENOMINATOR",
      "outputs": [
        {
          "internalType": "uint256",
          "name": "",
          "type": "uint256"
        }
      ],
      "stateMutability": "view",
      "type": "function"
    },
    {
      "inputs": [
        {
          "internalType": "uint256",
          "name": "amount",
          "type": "uint256"
        }
      ],
      "name": "addLiquidity",
      "outputs": [],
      "stateMutability": "nonpayable",
      "type": "function"
    },
    {
      "inputs": [
        {
          "internalType": "uint256",
          "name": "amount",
          "type": "uint256"
        }
      ],
      "name": "borrow",
      "outputs": [],
      "stateMutability": "nonpayable",
      "type": "function"
    },
    {
      "inputs": [],
      "name": "deposit",
      "outputs": [],
      "stateMutability": "payable",
      "type": "function"
    },
    {
      "inputs": [],
      "name": "getAllUsers",
      "outputs": [
        {
          "internalType": "address[]",
          "name": "",
          "type": "address[]"
        }
      ],
      "stateMutability": "view",
      "type": "function"
    },
    {
      "inputs": [
        {
          "internalType": "address",
          "name": "user",
          "type": "address"
        }
      ],
      "name": "getBorrowableAmount",
      "outputs": [
        {
          "internalType": "uint256",
          "name": "",
          "type": "uint256"
        }
      ],
      "stateMutability": "view",
      "type": "function"
    },
    {
      "inputs": [
        {
          "internalType": "address",
          "name": "user",
          "type": "address"
        }
      ],
      "name": "getCollateralRatio",
      "outputs": [
        {
          "internalType": "uint256",
          "name": "",
          "type": "uint256"
        }
      ],
      "stateMutability": "view",
      "type": "function"
    },
    {
      "inputs": [],
      "name": "getContractBalance",
      "outputs": [
        {
          "internalType": "uint256",
          "name": "",
          "type": "uint256"
        }
      ],
      "stateMutability": "view",
      "type": "function"
    },
    {
      "inputs": [],
      "name": "getContractStablecoinBalance",
      "outputs": [
        {
          "internalType": "uint256",
          "name": "",
          "type": "uint256"
        }
      ],
      "stateMutability": "view",
      "type": "function"
    },
    {
      "inputs": [
        {
          "internalType": "address",
          "name": "user",
          "type": "address"
        }
      ],
      "name": "isLiquidatable",
      "outputs": [
        {
          "internalType": "bool",
          "name": "",
          "type": "bool"
        }
      ],
      "stateMutability": "view",
      "type": "function"
    },
    {
      "inputs": [
        {
          "internalType": "address",
          "name": "",
          "type": "address"
        }
      ],
      "name": "isUser",
      "outputs": [
        {
          "internalType": "bool",
          "name": "",
          "type": "bool"
        }
      ],
      "stateMutability": "view",
      "type": "function"
    },
    {
      "inputs": [
        {
          "internalType": "address",
          "name": "user",
          "type": "address"
        }
      ],
      "name": "liquidate",
      "outputs": [],
      "stateMutability": "nonpayable",
      "type": "function"
    },
    {
      "inputs": [],
      "name": "owner",
      "outputs": [
        {
          "internalType": "address",
          "name": "",
          "type": "address"
        }
      ],
      "stateMutability": "view",
      "type": "function"
    },
    {
      "inputs": [
        {
          "internalType": "address",
          "name": "",
          "type": "address"
        }
      ],
      "name": "positions",
      "outputs": [
        {
          "internalType": "uint256",
          "name": "collateral",
          "type": "uint256"
        },
        {
          "internalType": "uint256",
          "name": "debt",
          "type": "uint256"
        }
      ],
      "stateMutability": "view",
      "type": "function"
    },
    {
      "inputs": [
        {
          "internalType": "uint256",
          "name": "amount",
          "type": "uint256"
        }
      ],
      "name": "repay",
      "outputs": [],
      "stateMutability": "nonpayable",
      "type": "function"
    },
    {
      "inputs": [],
      "name": "stablecoin",
      "outputs": [
        {
          "internalType": "contract IERC20",
          "name": "",
          "type": "address"
        }
      ],
      "stateMutability": "view",
      "type": "function"
    },
    {
      "inputs": [
        {
          "internalType": "uint256",
          "name": "",
          "type": "uint256"
        }
      ],
      "name": "users",
      "outputs": [
        {
          "internalType": "address",
          "name": "",
          "type": "address"
        }
      ],
      "stateMutability": "view",
      "type": "function"
    },
    {
      "inputs": [
        {
          "internalType": "uint256",
          "name": "amount",
          "type": "uint256"
        }
      ],
      "name": "withdraw",
      "outputs": [],
      "stateMutability": "nonpayable",
      "type": "function"
    }
  ],
  "bytecode": "0x608060405234801561001057600080fd5b506040516114a23803806114a283398101604081905261002f91610067565b600160008190558054336001600160a01b031991821617909155600280549091166001600160a01b0392909216919091179055610097565b60006020828403121561007957600080fd5b81516001600160a01b038116811461009057600080fd5b9392505050565b6113fc806100a66000396000f3fe60806040526004361061011f5760003560e01c8063691d1eb3116100a0578063c5ebeaec11610064578063c5ebeaec14610355578063d0e30db014610375578063e2842d791461037d578063e9cbd8221461039f578063f19562b6146103bf57600080fd5b8063691d1eb3146102cf5780636f9fb98a146102ef5780637a9fffb7146103025780638832bc29146103185780638da5cb5b1461033557600080fd5b8063371fd8e6116100e7578063371fd8e6146102015780634209fff1146102215780634b2961d91461025157806351c6590a1461026657806355f575101461028657600080fd5b8063042e02cf1461012457806315a3ba43146101595780632e1a7d4d146101875780632f865568146101a9578063365b98b2146101c9575b600080fd5b34801561013057600080fd5b5061014461013f366004611258565b6103d5565b60405190151581526020015b60405180910390f35b34801561016557600080fd5b50610179610174366004611258565b610415565b604051908152602001610150565b34801561019357600080fd5b506101a76101a2366004611281565b6104bd565b005b3480156101b557600080fd5b506101a76101c4366004611258565b6106f1565b3480156101d557600080fd5b506101e96101e4366004611281565b61096c565b6040516001600160a01b039091168152602001610150565b34801561020d57600080fd5b506101a761021c366004611281565b610996565b34801561022d57600080fd5b5061014461023c366004611258565b60056020526000908152604090205460ff1681565b34801561025d57600080fd5b50610179610b4d565b34801561027257600080fd5b506101a7610281366004611281565b610bbf565b34801561029257600080fd5b506102ba6102a1366004611258565b6003602052600090815260409020805460019091015482565b60408051928352602083019190915201610150565b3480156102db57600080fd5b506101796102ea366004611258565b610c9d565b3480156102fb57600080fd5b5047610179565b34801561030e57600080fd5b50610179613a9881565b34801561032457600080fd5b50610179686c6b935b8bbd40000081565b34801561034157600080fd5b506001546101e9906001600160a01b031681565b34801561036157600080fd5b506101a7610370366004611281565b610d50565b6101a7611023565b34801561038957600080fd5b506103926110e2565b604051610150919061129a565b3480156103ab57600080fd5b506002546101e9906001600160a01b031681565b3480156103cb57600080fd5b5061017961271081565b6001600160a01b03811660009081526003602052604081206001015481036103ff57506000919050565b600061040a83610415565b613a98119392505050565b6001600160a01b03811660009081526003602052604081206001015481036104405750600019919050565b6001600160a01b038216600090815260036020526040812054670de0b6b3a76400009061047790686c6b935b8bbd400000906112fd565b610481919061131a565b6001600160a01b0384166000908152600360205260409020600101549091506104ac612710836112fd565b6104b6919061131a565b9392505050565b6104c5611144565b6000811161051a5760405162461bcd60e51b815260206004820152601d60248201527f4d75737420776974686472617720706f73697469766520616d6f756e7400000060448201526064015b60405180910390fd5b336000908152600360205260409020548111156105795760405162461bcd60e51b815260206004820152601760248201527f496e73756666696369656e7420636f6c6c61746572616c0000000000000000006044820152606401610511565b3360009081526003602052604081205461059490839061133c565b336000908152600360205260409020600101549091501561060f57336000818152600360205260409020600101546105ce9190839061116e565b61060f5760405162461bcd60e51b8152602060048201526012602482015271496e73756666696369656e7420726174696f60701b6044820152606401610511565b336000818152600360205260408082208490555190919084908381818185875af1925050503d8060008114610660576040519150601f19603f3d011682016040523d82523d6000602084013e610665565b606091505b50509050806106ac5760405162461bcd60e51b8152602060048201526013602482015272115512081d1c985b9cd9995c8819985a5b1959606a1b6044820152606401610511565b60405183815233907f7084f5476618d8e60b11ef0d7d3f06914655adb8793e28ff7f018d4c76d505d5906020015b60405180910390a250506106ee6001600055565b50565b6106f9611144565b610702816103d5565b6107445760405162461bcd60e51b8152602060048201526013602482015272506f736974696f6e206973206865616c74687960681b6044820152606401610511565b6001600160a01b03811660009081526003602052604090206001810154905481158015906107725750600081115b6107af5760405162461bcd60e51b815260206004820152600e60248201526d22b6b83a3c903837b9b4ba34b7b760911b6044820152606401610511565b6002546040516323b872dd60e01b8152336004820152306024820152604481018490526001600160a01b03909116906323b872dd906064016020604051808303816000875af1158015610806573d6000803e3d6000fd5b505050506040513d601f19601f8201168201806040525081019061082a919061134f565b61086d5760405162461bcd60e51b81526020600482015260146024820152731119589d081d1c985b9cd9995c8819985a5b195960621b6044820152606401610511565b6001600160a01b0383166000908152600360205260408082206001810183905582905551339083908381818185875af1925050503d80600081146108cd576040519150601f19603f3d011682016040523d82523d6000602084013e6108d2565b606091505b50509050806109195760405162461bcd60e51b8152602060048201526013602482015272115512081d1c985b9cd9995c8819985a5b1959606a1b6044820152606401610511565b604080518481526020810184905233916001600160a01b038716917f1f0c6615429d1cdae0dfa233abf91d3b31cdbdd82c8081389832a61e1072f1ea910160405180910390a35050506106ee6001600055565b6004818154811061097c57600080fd5b6000918252602090912001546001600160a01b0316905081565b61099e611144565b600081116109ee5760405162461bcd60e51b815260206004820152601a60248201527f4d75737420726570617920706f73697469766520616d6f756e740000000000006044820152606401610511565b33600090815260036020526040902060010154811115610a505760405162461bcd60e51b815260206004820152601960248201527f526570617920616d6f756e7420657863656564732064656274000000000000006044820152606401610511565b6002546040516323b872dd60e01b8152336004820152306024820152604481018390526001600160a01b03909116906323b872dd906064016020604051808303816000875af1158015610aa7573d6000803e3d6000fd5b505050506040513d601f19601f82011682018060405250810190610acb919061134f565b610ae75760405162461bcd60e51b815260040161051190611371565b3360009081526003602052604081206001018054839290610b0990849061133c565b909155505060405181815233907f0516911bcc3a0a7412a44601057c0a0a1ec628bde049a84284bc4288665344889060200160405180910390a26106ee6001600055565b6002546040516370a0823160e01b81523060048201526000916001600160a01b0316906370a0823190602401602060405180830381865afa158015610b96573d6000803e3d6000fd5b505050506040513d601f19601f82011682018060405250810190610bba919061139a565b905090565b6001546001600160a01b03163314610c065760405162461bcd60e51b815260206004820152600a60248201526927b7363c9037bbb732b960b11b6044820152606401610511565b6002546040516323b872dd60e01b8152336004820152306024820152604481018390526001600160a01b03909116906323b872dd906064016020604051808303816000875af1158015610c5d573d6000803e3d6000fd5b505050506040513d601f19601f82011682018060405250810190610c81919061134f565b6106ee5760405162461bcd60e51b815260040161051190611371565b6001600160a01b0381166000908152600360205260408120548103610cc457506000919050565b6001600160a01b038216600090815260036020526040812054613a989061271090610cf990686c6b935b8bbd400000906112fd565b610d0391906112fd565b610d0d919061131a565b6001600160a01b03841660009081526003602052604090206001015490915080821115610d4657610d3e818361133c565b949350505050565b5060009392505050565b610d58611144565b60008111610da85760405162461bcd60e51b815260206004820152601b60248201527f4d75737420626f72726f7720706f73697469766520616d6f756e7400000000006044820152606401610511565b33600090815260036020526040902054610e045760405162461bcd60e51b815260206004820152601760248201527f4e6f20636f6c6c61746572616c206465706f73697465640000000000000000006044820152606401610511565b33600090815260036020526040812060010154610e229083906113b3565b33600081815260036020526040902054919250610e3f918361116e565b610e8b5760405162461bcd60e51b815260206004820152601d60248201527f496e73756666696369656e7420636f6c6c61746572616c20726174696f0000006044820152606401610511565b610e94336111d2565b3360009081526003602052604080822060010183905560025490516370a0823160e01b81523060048201526001600160a01b03909116906370a0823190602401602060405180830381865afa158015610ef1573d6000803e3d6000fd5b505050506040513d601f19601f82011682018060405250810190610f15919061139a565b905082811015610f605760405162461bcd60e51b8152602060048201526016602482015275496e73756666696369656e74206c697175696469747960501b6044820152606401610511565b60025460405163a9059cbb60e01b8152336004820152602481018590526001600160a01b039091169063a9059cbb906044016020604051808303816000875af1158015610fb1573d6000803e3d6000fd5b505050506040513d601f19601f82011682018060405250810190610fd5919061134f565b610ff15760405162461bcd60e51b815260040161051190611371565b60405183815233907fac59582e5396aca512fa873a2047e7f4c80f8f55d4a06cb34a78a0187f62719f906020016106da565b61102b611144565b600034116110735760405162461bcd60e51b815260206004820152601560248201527409aeae6e840c8cae0dee6d2e840e6dedaca408aa89605b1b6044820152606401610511565b33600090815260036020526040812080543492906110929084906113b3565b909155506110a19050336111d2565b60405134815233907f2da466a7b24304f47e87fa2e1e5a81b9831ce54fec19055ce277ca2f39ba42c49060200160405180910390a26110e06001600055565b565b6060600480548060200260200160405190810160405280929190818152602001828054801561113a57602002820191906000526020600020905b81546001600160a01b0316815260019091019060200180831161111c575b5050505050905090565b60026000540361116757604051633ee5aeb560e01b815260040160405180910390fd5b6002600055565b600081600003611180575060016104b6565b6000670de0b6b3a764000061119e686c6b935b8bbd400000866112fd565b6111a8919061131a565b90506000836111b9612710846112fd565b6111c3919061131a565b613a9811159695505050505050565b6001600160a01b03811660009081526005602052604090205460ff166106ee576001600160a01b03166000818152600560205260408120805460ff191660019081179091556004805491820181559091527f8a35acfbc15ff81a39ae7d344fd709f28e8600b4aa8c65c6b64bfe7fe36bd19b0180546001600160a01b0319169091179055565b60006020828403121561126a57600080fd5b81356001600160a01b03811681146104b657600080fd5b60006020828403121561129357600080fd5b5035919050565b6020808252825182820181905260009190848201906040850190845b818110156112db5783516001600160a01b0316835292840192918401916001016112b6565b50909695505050505050565b634e487b7160e01b600052601160045260246000fd5b8082028115828204841417611314576113146112e7565b92915050565b60008261133757634e487b7160e01b600052601260045260246000fd5b500490565b81810381811115611314576113146112e7565b60006020828403121561136157600080fd5b815180151581146104b657600080fd5b6020808252600f908201526e151c985b9cd9995c8819985a5b1959608a1b604082015260600190565b6000602082840312156113ac57600080fd5b5051919050565b80820180821115611314576113146112e756fea2646970667358221220be335f2a7805d5dd9fc8207a73532a399bddf1990890d8529e9c97b290990e1c64736f6c63430008140033",
  "linkReferences": {},
  "deployedLinkReferences": {}
}