{
  "_format": "hh-sol-artifact-1",
  "contractName": "Lending",
  "sourceName": "contracts/Lending.sol",
  "abi": [
    {
      "inputs": [
        {
          "internalType": "address",
          "name": "_stablecoin",
          "type": "address"
        }
      ],
      "stateMutability": "nonpayable",
      "type": "constructor"
    },
    {
      "inputs": [],
      "name": "ReentrancyGuardReentrantCall",
      "type": "error"
    },
    {
      "anonymous": false,
      "inputs": [
        {
          "indexed": true,
          "internalType": "address",
          "name": "user",
          "type": "address"
        },
        {
          "indexed": false,
          "internalType": "uint256",
          "name": "amount",
          "type": "uint256"
        }
      ],
      "name": "Borrowed",
      "type": "event"
    },
    {
      "anonymous": false,
      "inputs": [
        {
          "indexed": true,
          "internalType": "address",
          "name": "user",
          "type": "address"
        },
        {
          "indexed": false,
          "internalType": "uint256",
          "name": "amount",
          "type": "uint256"
        }
      ],
      "name": "Deposited",
      "type": "event"
    },
    {
      "anonymous": false,
      "inputs": [
        {
          "indexed": true,
          "internalType": "address",
          "name": "user",
          "type": "address"
        },
        {
          "indexed": false,
          "internalType": "uint256",
          "name": "amount",
          "type": "uint256"
        }
      ],
      "name": "Repaid",
      "type": "event"
    },
    {
      "anonymous": false,
      "inputs": [
        {
          "indexed": true,
          "internalType": "address",
          "name": "user",
          "type": "address"
        },
        {
          "indexed": false,
          "internalType": "uint256",
          "name": "amount",
          "type": "uint256"
        }
      ],
      "name": "Withdrawn",
      "type": "event"
    },
    {
      "inputs": [],
      "name": "ETH_PRICE",
      "outputs": [
        {
          "internalType": "uint256",
          "name": "",
          "type": "uint256"
        }
      ],
      "stateMutability": "view",
      "type": "function"
    },
    {
      "inputs": [],
      "name": "MIN_COLLATERAL_RATIO",
      "outputs": [
        {
          "internalType": "uint256",
          "name": "",
          "type": "uint256"
        }
      ],
      "stateMutability": "view",
      "type": "function"
    },
    {
      "inputs": [],
      "name": "RATIO_DENOMINATOR",
      "outputs": [
        {
          "internalType": "uint256",
          "name": "",
          "type": "uint256"
        }
      ],
      "stateMutability": "view",
      "type": "function"
    },
    {
      "inputs": [
        {
          "internalType": "uint256",
          "name": "amount",
          "type": "uint256"
        }
      ],
      "name": "addLiquidity",
      "outputs": [],
      "stateMutability": "nonpayable",
      "type": "function"
    },
    {
      "inputs": [
        {
          "internalType": "uint256",
          "name": "amount",
          "type": "uint256"
        }
      ],
      "name": "borrow",
      "outputs": [],
      "stateMutability": "nonpayable",
      "type": "function"
    },
    {
      "inputs": [],
      "name": "deposit",
      "outputs": [],
      "stateMutability": "payable",
      "type": "function"
    },
    {
      "inputs": [
        {
          "internalType": "address",
          "name": "user",
          "type": "address"
        }
      ],
      "name": "getBorrowableAmount",
      "outputs": [
        {
          "internalType": "uint256",
          "name": "",
          "type": "uint256"
        }
      ],
      "stateMutability": "view",
      "type": "function"
    },
    {
      "inputs": [
        {
          "internalType": "address",
          "name": "user",
          "type": "address"
        }
      ],
      "name": "getCollateralRatio",
      "outputs": [
        {
          "internalType": "uint256",
          "name": "",
          "type": "uint256"
        }
      ],
      "stateMutability": "view",
      "type": "function"
    },
    {
      "inputs": [],
      "name": "getContractBalance",
      "outputs": [
        {
          "internalType": "uint256",
          "name": "",
          "type": "uint256"
        }
      ],
      "stateMutability": "view",
      "type": "function"
    },
    {
      "inputs": [],
      "name": "getContractStablecoinBalance",
      "outputs": [
        {
          "internalType": "uint256",
          "name": "",
          "type": "uint256"
        }
      ],
      "stateMutability": "view",
      "type": "function"
    },
    {
      "inputs": [],
      "name": "owner",
      "outputs": [
        {
          "internalType": "address",
          "name": "",
          "type": "address"
        }
      ],
      "stateMutability": "view",
      "type": "function"
    },
    {
      "inputs": [
        {
          "internalType": "address",
          "name": "",
          "type": "address"
        }
      ],
      "name": "positions",
      "outputs": [
        {
          "internalType": "uint256",
          "name": "collateral",
          "type": "uint256"
        },
        {
          "internalType": "uint256",
          "name": "debt",
          "type": "uint256"
        }
      ],
      "stateMutability": "view",
      "type": "function"
    },
    {
      "inputs": [
        {
          "internalType": "uint256",
          "name": "amount",
          "type": "uint256"
        }
      ],
      "name": "repay",
      "outputs": [],
      "stateMutability": "nonpayable",
      "type": "function"
    },
    {
      "inputs": [],
      "name": "stablecoin",
      "outputs": [
        {
          "internalType": "contract IERC20",
          "name": "",
          "type": "address"
        }
      ],
      "stateMutability": "view",
      "type": "function"
    },
    {
      "inputs": [
        {
          "internalType": "uint256",
          "name": "amount",
          "type": "uint256"
        }
      ],
      "name": "withdraw",
      "outputs": [],
      "stateMutability": "nonpayable",
      "type": "function"
    }
  ],
  "bytecode": "0x608060405234801561001057600080fd5b50604051610f97380380610f9783398101604081905261002f91610067565b600160008190558054336001600160a01b031991821617909155600280549091166001600160a01b0392909216919091179055610097565b60006020828403121561007957600080fd5b81516001600160a01b038116811461009057600080fd5b9392505050565b610ef1806100a66000396000f3fe6080604052600436106100e85760003560e01c80636f9fb98a1161008a578063c5ebeaec11610059578063c5ebeaec1461027e578063d0e30db01461029e578063e9cbd822146102a6578063f19562b6146102c657600080fd5b80636f9fb98a146102005780637a9fffb7146102135780638832bc29146102295780638da5cb5b1461024657600080fd5b80634b2961d9116100c65780634b2961d91461016257806351c6590a1461017757806355f5751014610197578063691d1eb3146101e057600080fd5b806315a3ba43146100ed5780632e1a7d4d14610120578063371fd8e614610142575b600080fd5b3480156100f957600080fd5b5061010d610108366004610da0565b6102dc565b6040519081526020015b60405180910390f35b34801561012c57600080fd5b5061014061013b366004610dc9565b610384565b005b34801561014e57600080fd5b5061014061015d366004610dc9565b6105d0565b34801561016e57600080fd5b5061010d610787565b34801561018357600080fd5b50610140610192366004610dc9565b6107f9565b3480156101a357600080fd5b506101cb6101b2366004610da0565b6003602052600090815260409020805460019091015482565b60408051928352602083019190915201610117565b3480156101ec57600080fd5b5061010d6101fb366004610da0565b6108d7565b34801561020c57600080fd5b504761010d565b34801561021f57600080fd5b5061010d613a9881565b34801561023557600080fd5b5061010d686c6b935b8bbd40000081565b34801561025257600080fd5b50600154610266906001600160a01b031681565b6040516001600160a01b039091168152602001610117565b34801561028a57600080fd5b50610140610299366004610dc9565b61098a565b610140610c43565b3480156102b257600080fd5b50600254610266906001600160a01b031681565b3480156102d257600080fd5b5061010d61271081565b6001600160a01b03811660009081526003602052604081206001015481036103075750600019919050565b6001600160a01b038216600090815260036020526040812054670de0b6b3a76400009061033e90686c6b935b8bbd40000090610df8565b6103489190610e0f565b6001600160a01b03841660009081526003602052604090206001015490915061037361271083610df8565b61037d9190610e0f565b9392505050565b61038c610cf8565b600081116103e15760405162461bcd60e51b815260206004820152601d60248201527f4d75737420776974686472617720706f73697469766520616d6f756e7400000060448201526064015b60405180910390fd5b336000908152600360205260409020548111156104405760405162461bcd60e51b815260206004820152601760248201527f496e73756666696369656e7420636f6c6c61746572616c00000000000000000060448201526064016103d8565b3360009081526003602052604081205461045b908390610e31565b33600090815260036020526040902060010154909150156104ee576000610481336102dc565b9050613a988110156104ec5760405162461bcd60e51b815260206004820152602e60248201527f496e73756666696369656e7420636f6c6c61746572616c20726174696f20616660448201526d1d195c881dda5d1a191c985dd85b60921b60648201526084016103d8565b505b336000818152600360205260408082208490555190919084908381818185875af1925050503d806000811461053f576040519150601f19603f3d011682016040523d82523d6000602084013e610544565b606091505b505090508061058b5760405162461bcd60e51b8152602060048201526013602482015272115512081d1c985b9cd9995c8819985a5b1959606a1b60448201526064016103d8565b60405183815233907f7084f5476618d8e60b11ef0d7d3f06914655adb8793e28ff7f018d4c76d505d5906020015b60405180910390a250506105cd6001600055565b50565b6105d8610cf8565b600081116106285760405162461bcd60e51b815260206004820152601a60248201527f4d75737420726570617920706f73697469766520616d6f756e7400000000000060448201526064016103d8565b3360009081526003602052604090206001015481111561068a5760405162461bcd60e51b815260206004820152601960248201527f526570617920616d6f756e74206578636565647320646562740000000000000060448201526064016103d8565b6002546040516323b872dd60e01b8152336004820152306024820152604481018390526001600160a01b03909116906323b872dd906064016020604051808303816000875af11580156106e1573d6000803e3d6000fd5b505050506040513d601f19601f820116820180604052508101906107059190610e44565b6107215760405162461bcd60e51b81526004016103d890610e66565b3360009081526003602052604081206001018054839290610743908490610e31565b909155505060405181815233907f0516911bcc3a0a7412a44601057c0a0a1ec628bde049a84284bc4288665344889060200160405180910390a26105cd6001600055565b6002546040516370a0823160e01b81523060048201526000916001600160a01b0316906370a0823190602401602060405180830381865afa1580156107d0573d6000803e3d6000fd5b505050506040513d601f19601f820116820180604052508101906107f49190610e8f565b905090565b6001546001600160a01b031633146108405760405162461bcd60e51b815260206004820152600a60248201526927b7363c9037bbb732b960b11b60448201526064016103d8565b6002546040516323b872dd60e01b8152336004820152306024820152604481018390526001600160a01b03909116906323b872dd906064016020604051808303816000875af1158015610897573d6000803e3d6000fd5b505050506040513d601f19601f820116820180604052508101906108bb9190610e44565b6105cd5760405162461bcd60e51b81526004016103d890610e66565b6001600160a01b03811660009081526003602052604081205481036108fe57506000919050565b6001600160a01b038216600090815260036020526040812054613a98906127109061093390686c6b935b8bbd40000090610df8565b61093d9190610df8565b6109479190610e0f565b6001600160a01b03841660009081526003602052604090206001015490915080821115610980576109788183610e31565b949350505050565b5060009392505050565b610992610cf8565b600081116109e25760405162461bcd60e51b815260206004820152601b60248201527f4d75737420626f72726f7720706f73697469766520616d6f756e74000000000060448201526064016103d8565b33600090815260036020526040902054610a3e5760405162461bcd60e51b815260206004820152601760248201527f4e6f20636f6c6c61746572616c206465706f736974656400000000000000000060448201526064016103d8565b33600090815260036020526040812060010154610a5c908390610ea8565b9050610a683382610d22565b610ab45760405162461bcd60e51b815260206004820152601d60248201527f496e73756666696369656e7420636f6c6c61746572616c20726174696f00000060448201526064016103d8565b3360009081526003602052604080822060010183905560025490516370a0823160e01b81523060048201526001600160a01b03909116906370a0823190602401602060405180830381865afa158015610b11573d6000803e3d6000fd5b505050506040513d601f19601f82011682018060405250810190610b359190610e8f565b905082811015610b805760405162461bcd60e51b8152602060048201526016602482015275496e73756666696369656e74206c697175696469747960501b60448201526064016103d8565b60025460405163a9059cbb60e01b8152336004820152602481018590526001600160a01b039091169063a9059cbb906044016020604051808303816000875af1158015610bd1573d6000803e3d6000fd5b505050506040513d601f19601f82011682018060405250810190610bf59190610e44565b610c115760405162461bcd60e51b81526004016103d890610e66565b60405183815233907fac59582e5396aca512fa873a2047e7f4c80f8f55d4a06cb34a78a0187f62719f906020016105b9565b610c4b610cf8565b60003411610c935760405162461bcd60e51b815260206004820152601560248201527409aeae6e840c8cae0dee6d2e840e6dedaca408aa89605b1b60448201526064016103d8565b3360009081526003602052604081208054349290610cb2908490610ea8565b909155505060405134815233907f2da466a7b24304f47e87fa2e1e5a81b9831ce54fec19055ce277ca2f39ba42c49060200160405180910390a2610cf66001600055565b565b600260005403610d1b57604051633ee5aeb560e01b815260040160405180910390fd5b6002600055565b600081600003610d3457506001610d9a565b6001600160a01b038316600090815260036020526040812054670de0b6b3a764000090610d6b90686c6b935b8bbd40000090610df8565b610d759190610e0f565b9050600083610d8661271084610df8565b610d909190610e0f565b613a981115925050505b92915050565b600060208284031215610db257600080fd5b81356001600160a01b038116811461037d57600080fd5b600060208284031215610ddb57600080fd5b5035919050565b634e487b7160e01b600052601160045260246000fd5b8082028115828204841417610d9a57610d9a610de2565b600082610e2c57634e487b7160e01b600052601260045260246000fd5b500490565b81810381811115610d9a57610d9a610de2565b600060208284031215610e5657600080fd5b8151801515811461037d57600080fd5b6020808252600f908201526e151c985b9cd9995c8819985a5b1959608a1b604082015260600190565b600060208284031215610ea157600080fd5b5051919050565b80820180821115610d9a57610d9a610de256fea26469706673582212209ac03087a2cbc8b868fc228f49b62a2376f25ff2c85e1f6d5582f7e445a7ae9864736f6c63430008140033",
  "linkReferences": {},
  "deployedLinkReferences": {}
}