{
  "_format": "hh-sol-artifact-1",
  "contractName": "ImprovedLending",
  "sourceName": "contracts/Lending_backup.sol",
  "abi": [
    {
      "inputs": [
        {
          "internalType": "address",
          "name": "_stablecoin",
          "type": "address"
        }
      ],
      "stateMutability": "nonpayable",
      "type": "constructor"
    },
    {
      "inputs": [],
      "name": "ReentrancyGuardReentrantCall",
      "type": "error"
    },
    {
      "anonymous": false,
      "inputs": [
        {
          "indexed": true,
          "internalType": "address",
          "name": "user",
          "type": "address"
        },
        {
          "indexed": false,
          "internalType": "uint256",
          "name": "amount",
          "type": "uint256"
        }
      ],
      "name": "Borrowed",
      "type": "event"
    },
    {
      "anonymous": false,
      "inputs": [
        {
          "indexed": true,
          "internalType": "address",
          "name": "user",
          "type": "address"
        },
        {
          "indexed": false,
          "internalType": "uint256",
          "name": "amount",
          "type": "uint256"
        }
      ],
      "name": "Deposited",
      "type": "event"
    },
    {
      "anonymous": false,
      "inputs": [
        {
          "indexed": true,
          "internalType": "address",
          "name": "user",
          "type": "address"
        },
        {
          "indexed": false,
          "internalType": "address",
          "name": "liquidator",
          "type": "address"
        },
        {
          "indexed": false,
          "internalType": "uint256",
          "name": "collateralSeized",
          "type": "uint256"
        }
      ],
      "name": "Liquidated",
      "type": "event"
    },
    {
      "anonymous": false,
      "inputs": [
        {
          "indexed": true,
          "internalType": "address",
          "name": "user",
          "type": "address"
        },
        {
          "indexed": false,
          "internalType": "uint256",
          "name": "amount",
          "type": "uint256"
        }
      ],
      "name": "Repaid",
      "type": "event"
    },
    {
      "anonymous": false,
      "inputs": [
        {
          "indexed": true,
          "internalType": "address",
          "name": "user",
          "type": "address"
        },
        {
          "indexed": false,
          "internalType": "uint256",
          "name": "amount",
          "type": "uint256"
        }
      ],
      "name": "Withdrawn",
      "type": "event"
    },
    {
      "inputs": [],
      "name": "ETH_PRICE",
      "outputs": [
        {
          "internalType": "uint256",
          "name": "",
          "type": "uint256"
        }
      ],
      "stateMutability": "view",
      "type": "function"
    },
    {
      "inputs": [],
      "name": "LIQUIDATION_BONUS",
      "outputs": [
        {
          "internalType": "uint256",
          "name": "",
          "type": "uint256"
        }
      ],
      "stateMutability": "view",
      "type": "function"
    },
    {
      "inputs": [],
      "name": "LIQUIDATION_THRESHOLD",
      "outputs": [
        {
          "internalType": "uint256",
          "name": "",
          "type": "uint256"
        }
      ],
      "stateMutability": "view",
      "type": "function"
    },
    {
      "inputs": [],
      "name": "MIN_COLLATERAL_RATIO",
      "outputs": [
        {
          "internalType": "uint256",
          "name": "",
          "type": "uint256"
        }
      ],
      "stateMutability": "view",
      "type": "function"
    },
    {
      "inputs": [],
      "name": "RATIO_DENOMINATOR",
      "outputs": [
        {
          "internalType": "uint256",
          "name": "",
          "type": "uint256"
        }
      ],
      "stateMutability": "view",
      "type": "function"
    },
    {
      "inputs": [
        {
          "internalType": "uint256",
          "name": "amount",
          "type": "uint256"
        }
      ],
      "name": "borrow",
      "outputs": [],
      "stateMutability": "nonpayable",
      "type": "function"
    },
    {
      "inputs": [],
      "name": "deposit",
      "outputs": [],
      "stateMutability": "payable",
      "type": "function"
    },
    {
      "inputs": [
        {
          "internalType": "address",
          "name": "user",
          "type": "address"
        }
      ],
      "name": "getCollateralRatio",
      "outputs": [
        {
          "internalType": "uint256",
          "name": "",
          "type": "uint256"
        }
      ],
      "stateMutability": "view",
      "type": "function"
    },
    {
      "inputs": [],
      "name": "owner",
      "outputs": [
        {
          "internalType": "address",
          "name": "",
          "type": "address"
        }
      ],
      "stateMutability": "view",
      "type": "function"
    },
    {
      "inputs": [
        {
          "internalType": "address",
          "name": "",
          "type": "address"
        }
      ],
      "name": "positions",
      "outputs": [
        {
          "internalType": "uint256",
          "name": "collateral",
          "type": "uint256"
        },
        {
          "internalType": "uint256",
          "name": "debt",
          "type": "uint256"
        }
      ],
      "stateMutability": "view",
      "type": "function"
    },
    {
      "inputs": [],
      "name": "priceFeed",
      "outputs": [
        {
          "internalType": "address",
          "name": "",
          "type": "address"
        }
      ],
      "stateMutability": "view",
      "type": "function"
    },
    {
      "inputs": [],
      "name": "stablecoin",
      "outputs": [
        {
          "internalType": "contract IERC20",
          "name": "",
          "type": "address"
        }
      ],
      "stateMutability": "view",
      "type": "function"
    }
  ],
  "bytecode": "0x608060405234801561001057600080fd5b506040516107fb3803806107fb83398101604081905261002f91610067565b600160008190558054336001600160a01b031991821617909155600280549091166001600160a01b0392909216919091179055610097565b60006020828403121561007957600080fd5b81516001600160a01b038116811461009057600080fd5b9392505050565b610755806100a66000396000f3fe6080604052600436106100a75760003560e01c80638da5cb5b116100645780638da5cb5b146101a957806390a8ae9b146101c9578063c5ebeaec146101df578063d0e30db014610201578063e9cbd82214610209578063f19562b61461022957600080fd5b806315a3ba43146100ac5780633574d4c4146100df57806355f57510146100f5578063741bef1a1461013e5780637a9fffb7146101765780638832bc291461018c575b600080fd5b3480156100b857600080fd5b506100cc6100c7366004610659565b61023f565b6040519081526020015b60405180910390f35b3480156100eb57600080fd5b506100cc6101f481565b34801561010157600080fd5b50610129610110366004610659565b6003602052600090815260409020805460019091015482565b604080519283526020830191909152016100d6565b34801561014a57600080fd5b5060045461015e906001600160a01b031681565b6040516001600160a01b0390911681526020016100d6565b34801561018257600080fd5b506100cc613a9881565b34801561019857600080fd5b506100cc686c6b935b8bbd40000081565b3480156101b557600080fd5b5060015461015e906001600160a01b031681565b3480156101d557600080fd5b506100cc6130d481565b3480156101eb57600080fd5b506101ff6101fa366004610682565b6102e7565b005b6101ff610503565b34801561021557600080fd5b5060025461015e906001600160a01b031681565b34801561023557600080fd5b506100cc61271081565b6001600160a01b038116600090815260036020526040812060010154810361026a5750600019919050565b6001600160a01b038216600090815260036020526040812054670de0b6b3a7640000906102a190686c6b935b8bbd400000906106b1565b6102ab91906106c8565b6001600160a01b0384166000908152600360205260409020600101549091506102d6612710836106b1565b6102e091906106c8565b9392505050565b6102ef6105b1565b600081116103355760405162461bcd60e51b815260206004820152600e60248201526d125b9d985b1a5908185b5bdd5b9d60921b60448201526064015b60405180910390fd5b336000908152600360205260409020546103815760405162461bcd60e51b815260206004820152600d60248201526c139bc818dbdb1b185d195c985b609a1b604482015260640161032c565b3360009081526003602052604081206001015461039f9083906106ea565b90506103ab33826105db565b6103f75760405162461bcd60e51b815260206004820152601760248201527f496e73756666696369656e7420636f6c6c61746572616c000000000000000000604482015260640161032c565b3360008181526003602052604090819020600101839055600254905163a9059cbb60e01b81526004810192909252602482018490526001600160a01b03169063a9059cbb906044016020604051808303816000875af115801561045e573d6000803e3d6000fd5b505050506040513d601f19601f8201168201806040525081019061048291906106fd565b6104c05760405162461bcd60e51b815260206004820152600f60248201526e151c985b9cd9995c8819985a5b1959608a1b604482015260640161032c565b60405182815233907fac59582e5396aca512fa873a2047e7f4c80f8f55d4a06cb34a78a0187f62719f9060200160405180910390a2506105006001600055565b50565b61050b6105b1565b6000341161054c5760405162461bcd60e51b815260206004820152600e60248201526d125b9d985b1a5908185b5bdd5b9d60921b604482015260640161032c565b336000908152600360205260408120805434929061056b9084906106ea565b909155505060405134815233907f2da466a7b24304f47e87fa2e1e5a81b9831ce54fec19055ce277ca2f39ba42c49060200160405180910390a26105af6001600055565b565b6002600054036105d457604051633ee5aeb560e01b815260040160405180910390fd5b6002600055565b6000816000036105ed57506001610653565b6001600160a01b038316600090815260036020526040812054670de0b6b3a76400009061062490686c6b935b8bbd400000906106b1565b61062e91906106c8565b905060008361063f612710846106b1565b61064991906106c8565b613a981115925050505b92915050565b60006020828403121561066b57600080fd5b81356001600160a01b03811681146102e057600080fd5b60006020828403121561069457600080fd5b5035919050565b634e487b7160e01b600052601160045260246000fd5b80820281158282048414176106535761065361069b565b6000826106e557634e487b7160e01b600052601260045260246000fd5b500490565b808201808211156106535761065361069b565b60006020828403121561070f57600080fd5b815180151581146102e057600080fdfea2646970667358221220e8c9715735db8964fe971cd76f724c177100578801feafd3436a120f080c709764736f6c63430008140033",
  "linkReferences": {},
  "deployedLinkReferences": {}
}